{
  "_format": "hh-sol-artifact-1",
  "contractName": "MultiSig",
  "sourceName": "contracts/MultiSig.sol",
  "abi": [
    {
      "inputs": [
        {
          "internalType": "address[]",
          "name": "_owners",
          "type": "address[]"
        },
        {
          "internalType": "uint256",
          "name": "_numConfirmations",
          "type": "uint256"
        }
      ],
      "stateMutability": "nonpayable",
      "type": "constructor"
    },
    {
      "anonymous": false,
      "inputs": [
        {
          "indexed": true,
          "internalType": "address",
          "name": "owner",
          "type": "address"
        },
        {
          "indexed": true,
          "internalType": "uint256",
          "name": "txIndex",
          "type": "uint256"
        }
      ],
      "name": "ConfirmTransaction",
      "type": "event"
    },
    {
      "anonymous": false,
      "inputs": [
        {
          "indexed": true,
          "internalType": "address",
          "name": "sender",
          "type": "address"
        },
        {
          "indexed": false,
          "internalType": "uint256",
          "name": "amount",
          "type": "uint256"
        },
        {
          "indexed": false,
          "internalType": "uint256",
          "name": "balance",
          "type": "uint256"
        }
      ],
      "name": "Deposit",
      "type": "event"
    },
    {
      "anonymous": false,
      "inputs": [
        {
          "indexed": true,
          "internalType": "address",
          "name": "owner",
          "type": "address"
        },
        {
          "indexed": true,
          "internalType": "uint256",
          "name": "txIndex",
          "type": "uint256"
        }
      ],
      "name": "ExecuteTransaction",
      "type": "event"
    },
    {
      "anonymous": false,
      "inputs": [
        {
          "indexed": true,
          "internalType": "address",
          "name": "owner",
          "type": "address"
        },
        {
          "indexed": true,
          "internalType": "uint256",
          "name": "txIndex",
          "type": "uint256"
        }
      ],
      "name": "RevokeConfirmation",
      "type": "event"
    },
    {
      "anonymous": false,
      "inputs": [
        {
          "indexed": true,
          "internalType": "address",
          "name": "owner",
          "type": "address"
        },
        {
          "indexed": true,
          "internalType": "uint256",
          "name": "txIndex",
          "type": "uint256"
        },
        {
          "indexed": true,
          "internalType": "address",
          "name": "to",
          "type": "address"
        },
        {
          "indexed": false,
          "internalType": "uint256",
          "name": "value",
          "type": "uint256"
        }
      ],
      "name": "SubmitTransaction",
      "type": "event"
    },
    {
      "inputs": [],
      "name": "deployer",
      "outputs": [
        {
          "internalType": "address",
          "name": "",
          "type": "address"
        }
      ],
      "stateMutability": "view",
      "type": "function"
    },
    {
      "inputs": [
        {
          "internalType": "uint256",
          "name": "_txIndex",
          "type": "uint256"
        }
      ],
      "name": "executeTransaction",
      "outputs": [],
      "stateMutability": "nonpayable",
      "type": "function"
    },
    {
      "inputs": [],
      "name": "getDeployers",
      "outputs": [
        {
          "internalType": "address",
          "name": "",
          "type": "address"
        }
      ],
      "stateMutability": "view",
      "type": "function"
    },
    {
      "inputs": [],
      "name": "getOwners",
      "outputs": [
        {
          "internalType": "address[]",
          "name": "",
          "type": "address[]"
        }
      ],
      "stateMutability": "view",
      "type": "function"
    },
    {
      "inputs": [],
      "name": "getTotalTransactionCount",
      "outputs": [
        {
          "internalType": "uint256",
          "name": "",
          "type": "uint256"
        }
      ],
      "stateMutability": "view",
      "type": "function"
    },
    {
      "inputs": [
        {
          "internalType": "uint256",
          "name": "_txIndex",
          "type": "uint256"
        }
      ],
      "name": "getTransactionStatus",
      "outputs": [
        {
          "internalType": "bool",
          "name": "",
          "type": "bool"
        }
      ],
      "stateMutability": "view",
      "type": "function"
    },
    {
      "inputs": [],
      "name": "getpendingTransaxtion",
      "outputs": [
        {
          "internalType": "uint256",
          "name": "",
          "type": "uint256"
        }
      ],
      "stateMutability": "view",
      "type": "function"
    },
    {
      "inputs": [
        {
          "internalType": "uint256",
          "name": "",
          "type": "uint256"
        },
        {
          "internalType": "address",
          "name": "",
          "type": "address"
        }
      ],
      "name": "isConfirmed",
      "outputs": [
        {
          "internalType": "bool",
          "name": "",
          "type": "bool"
        }
      ],
      "stateMutability": "view",
      "type": "function"
    },
    {
      "inputs": [
        {
          "internalType": "address",
          "name": "",
          "type": "address"
        }
      ],
      "name": "isOwner",
      "outputs": [
        {
          "internalType": "bool",
          "name": "",
          "type": "bool"
        }
      ],
      "stateMutability": "view",
      "type": "function"
    },
    {
      "inputs": [],
      "name": "numConfirmationRequired",
      "outputs": [
        {
          "internalType": "uint256",
          "name": "",
          "type": "uint256"
        }
      ],
      "stateMutability": "view",
      "type": "function"
    },
    {
      "inputs": [
        {
          "internalType": "uint256",
          "name": "",
          "type": "uint256"
        }
      ],
      "name": "owners",
      "outputs": [
        {
          "internalType": "address",
          "name": "",
          "type": "address"
        }
      ],
      "stateMutability": "view",
      "type": "function"
    },
    {
      "inputs": [
        {
          "internalType": "uint256",
          "name": "_txIndex",
          "type": "uint256"
        },
        {
          "internalType": "address",
          "name": "_owner",
          "type": "address"
        }
      ],
      "name": "retSigned",
      "outputs": [
        {
          "internalType": "bool",
          "name": "",
          "type": "bool"
        }
      ],
      "stateMutability": "view",
      "type": "function"
    },
    {
      "inputs": [
        {
          "internalType": "uint256",
          "name": "_txIndex",
          "type": "uint256"
        }
      ],
      "name": "revokeConfirmation",
      "outputs": [],
      "stateMutability": "nonpayable",
      "type": "function"
    },
    {
      "inputs": [
        {
          "internalType": "uint256",
          "name": "_txIndex",
          "type": "uint256"
        }
      ],
      "name": "signTransaction",
      "outputs": [],
      "stateMutability": "nonpayable",
      "type": "function"
    },
    {
      "inputs": [
        {
          "internalType": "address",
          "name": "_to",
          "type": "address"
        },
        {
          "internalType": "uint256",
          "name": "_value",
          "type": "uint256"
        }
      ],
      "name": "submitTransaction",
      "outputs": [],
      "stateMutability": "payable",
      "type": "function"
    },
    {
      "inputs": [
        {
          "internalType": "uint256",
          "name": "",
          "type": "uint256"
        }
      ],
      "name": "transaction",
      "outputs": [
        {
          "internalType": "address",
          "name": "to",
          "type": "address"
        },
        {
          "internalType": "uint256",
          "name": "value",
          "type": "uint256"
        },
        {
          "internalType": "bool",
          "name": "executed",
          "type": "bool"
        },
        {
          "internalType": "uint256",
          "name": "numConfirmations",
          "type": "uint256"
        }
      ],
      "stateMutability": "view",
      "type": "function"
    },
    {
      "inputs": [],
      "name": "treasuryAddress",
      "outputs": [
        {
          "internalType": "address",
          "name": "",
          "type": "address"
        }
      ],
      "stateMutability": "view",
      "type": "function"
    },
    {
      "stateMutability": "payable",
      "type": "receive"
    }
  ],
  "bytecode": "0x60806040523480156200001157600080fd5b50604051620025e4380380620025e483398181016040528101906200003791906200041b565b60008251116200007e576040517f08c379a0000000000000000000000000000000000000000000000000000000008152600401620000759062000511565b60405180910390fd5b60008111801562000090575081518111155b620000d2576040517f08c379a0000000000000000000000000000000000000000000000000000000008152600401620000c99062000555565b60405180910390fd5b60005b8251811015620002fa5760008382815181106200011b577f4e487b7100000000000000000000000000000000000000000000000000000000600052603260045260246000fd5b60200260200101519050600073ffffffffffffffffffffffffffffffffffffffff168173ffffffffffffffffffffffffffffffffffffffff16141562000198576040517f08c379a00000000000000000000000000000000000000000000000000000000081526004016200018f9062000533565b60405180910390fd5b600460008273ffffffffffffffffffffffffffffffffffffffff1673ffffffffffffffffffffffffffffffffffffffff16815260200190815260200160002060009054906101000a900460ff161562000228576040517f08c379a00000000000000000000000000000000000000000000000000000000081526004016200021f9062000577565b60405180910390fd5b6001600460008373ffffffffffffffffffffffffffffffffffffffff1673ffffffffffffffffffffffffffffffffffffffff16815260200190815260200160002060006101000a81548160ff0219169083151502179055506003819080600181540180825580915050600190039060005260206000200160009091909190916101000a81548173ffffffffffffffffffffffffffffffffffffffff021916908373ffffffffffffffffffffffffffffffffffffffff160217905550508080620002f19062000676565b915050620000d5565b508060058190555033600160006101000a81548173ffffffffffffffffffffffffffffffffffffffff021916908373ffffffffffffffffffffffffffffffffffffffff16021790555050506200080b565b6000620003626200035c84620005c2565b62000599565b905080838252602082019050828560208602820111156200038257600080fd5b60005b85811015620003b657816200039b8882620003c0565b84526020840193506020830192505060018101905062000385565b5050509392505050565b600081519050620003d181620007d7565b92915050565b600082601f830112620003e957600080fd5b8151620003fb8482602086016200034b565b91505092915050565b6000815190506200041581620007f1565b92915050565b600080604083850312156200042f57600080fd5b600083015167ffffffffffffffff8111156200044a57600080fd5b6200045885828601620003d7565b92505060206200046b8582860162000404565b9150509250929050565b600062000484600f83620005f1565b9150620004918262000733565b602082019050919050565b6000620004ab600f83620005f1565b9150620004b8826200075c565b602082019050919050565b6000620004d2601a83620005f1565b9150620004df8262000785565b602082019050919050565b6000620004f9601183620005f1565b91506200050682620007ae565b602082019050919050565b600060208201905081810360008301526200052c8162000475565b9050919050565b600060208201905081810360008301526200054e816200049c565b9050919050565b600060208201905081810360008301526200057081620004c3565b9050919050565b600060208201905081810360008301526200059281620004ea565b9050919050565b6000620005a5620005b8565b9050620005b3828262000640565b919050565b6000604051905090565b600067ffffffffffffffff821115620005e057620005df620006f3565b5b602082029050602081019050919050565b600082825260208201905092915050565b60006200060f8262000616565b9050919050565b600073ffffffffffffffffffffffffffffffffffffffff82169050919050565b6000819050919050565b6200064b8262000722565b810181811067ffffffffffffffff821117156200066d576200066c620006f3565b5b80604052505050565b6000620006838262000636565b91507fffffffffffffffffffffffffffffffffffffffffffffffffffffffffffffffff821415620006b957620006b8620006c4565b5b600182019050919050565b7f4e487b7100000000000000000000000000000000000000000000000000000000600052601160045260246000fd5b7f4e487b7100000000000000000000000000000000000000000000000000000000600052604160045260246000fd5b6000601f19601f8301169050919050565b7f6f776e6572732072657175697265640000000000000000000000000000000000600082015250565b7f696e76616c696420616464726573730000000000000000000000000000000000600082015250565b7f696e76616c6964206e6f206f6620636f6e6669726d6174696f6e000000000000600082015250565b7f6f776e657273206e6f7420756e69717565000000000000000000000000000000600082015250565b620007e28162000602565b8114620007ee57600080fd5b50565b620007fc8162000636565b81146200080857600080fd5b50565b611dc9806200081b6000396000f3fe6080604052600436106101025760003560e01c8063607c12b5116100955780639b6a34d3116100645780639b6a34d3146103be578063a0e67e2b146103e9578063c5f956af14610414578063d5f394881461043f578063ee22610b1461046a57610159565b8063607c12b5146102ee5780636bbc379d1461031957806380f59a651461035657806385d879921461039357610159565b8063362fa0db116100d1578063362fa0db1461021d57806346bd08411461025a5780634a97b1b51461029a5780635d9ec210146102c557610159565b8063025e7c271461015e5780631d43b6531461019b57806320ea8d86146101b75780632f54bf6e146101e057610159565b36610159573373ffffffffffffffffffffffffffffffffffffffff167f90890809c654f11d6e72a28fa60149770a0d11ec6c92319d6ceb2bb0a4ea1a15344760405161014f929190611a49565b60405180910390a2005b600080fd5b34801561016a57600080fd5b50610185600480360381019061018091906115a4565b610493565b6040516101929190611851565b60405180910390f35b6101b560048036038101906101b09190611568565b6104d2565b005b3480156101c357600080fd5b506101de60048036038101906101d991906115a4565b610700565b005b3480156101ec57600080fd5b506102076004803603810190610202919061153f565b610a20565b60405161021491906118d3565b60405180910390f35b34801561022957600080fd5b50610244600480360381019061023f91906115cd565b610a40565b60405161025191906118d3565b60405180910390f35b34801561026657600080fd5b50610281600480360381019061027c91906115a4565b610aa8565b604051610291949392919061186c565b60405180910390f35b3480156102a657600080fd5b506102af610b15565b6040516102bc9190611a2e565b60405180910390f35b3480156102d157600080fd5b506102ec60048036038101906102e791906115a4565b610b22565b005b3480156102fa57600080fd5b50610303610e45565b6040516103109190611851565b60405180910390f35b34801561032557600080fd5b50610340600480360381019061033b91906115a4565b610e6f565b60405161034d91906118d3565b60405180910390f35b34801561036257600080fd5b5061037d600480360381019061037891906115cd565b610ed1565b60405161038a91906118d3565b60405180910390f35b34801561039f57600080fd5b506103a8610f00565b6040516103b59190611a2e565b60405180910390f35b3480156103ca57600080fd5b506103d3610f11565b6040516103e09190611a2e565b60405180910390f35b3480156103f557600080fd5b506103fe610f17565b60405161040b91906118b1565b60405180910390f35b34801561042057600080fd5b50610429610fa5565b6040516104369190611851565b60405180910390f35b34801561044b57600080fd5b50610454610fcb565b6040516104619190611851565b60405180910390f35b34801561047657600080fd5b50610491600480360381019061048c91906115a4565b610ff1565b005b600381815481106104a357600080fd5b906000526020600020016000915054906101000a900473ffffffffffffffffffffffffffffffffffffffff1681565b600460003373ffffffffffffffffffffffffffffffffffffffff1673ffffffffffffffffffffffffffffffffffffffff16815260200190815260200160002060009054906101000a900460ff1661055e576040517f08c379a0000000000000000000000000000000000000000000000000000000008152600401610555906119ee565b60405180910390fd5b3481146105a0576040517f08c379a00000000000000000000000000000000000000000000000000000000081526004016105979061194e565b60405180910390fd5b60006007805490509050600760405180608001604052808573ffffffffffffffffffffffffffffffffffffffff1681526020018481526020016000151581526020016000815250908060018154018082558091505060019003906000526020600020906004020160009091909190915060008201518160000160006101000a81548173ffffffffffffffffffffffffffffffffffffffff021916908373ffffffffffffffffffffffffffffffffffffffff1602179055506020820151816001015560408201518160020160006101000a81548160ff02191690831515021790555060608201518160030155505060006114959050508273ffffffffffffffffffffffffffffffffffffffff16813373ffffffffffffffffffffffffffffffffffffffff167fcd144288a078b7562351164feb1762115faca27f30827b4142f2bbe27166e320856040516106f39190611a2e565b60405180910390a4505050565b600460003373ffffffffffffffffffffffffffffffffffffffff1673ffffffffffffffffffffffffffffffffffffffff16815260200190815260200160002060009054906101000a900460ff1661078c576040517f08c379a0000000000000000000000000000000000000000000000000000000008152600401610783906119ee565b60405180910390fd5b8060078054905081106107d4576040517f08c379a00000000000000000000000000000000000000000000000000000000081526004016107cb9061190e565b60405180910390fd5b816007818154811061080f577f4e487b7100000000000000000000000000000000000000000000000000000000600052603260045260246000fd5b906000526020600020906004020160020160009054906101000a900460ff161561086e576040517f08c379a0000000000000000000000000000000000000000000000000000000008152600401610865906119ce565b60405180910390fd5b6006600084815260200190815260200160002060003373ffffffffffffffffffffffffffffffffffffffff1673ffffffffffffffffffffffffffffffffffffffff16815260200190815260200160002060009054906101000a900460ff1661090b576040517f08c379a000000000000000000000000000000000000000000000000000000000815260040161090290611a0e565b60405180910390fd5b600160078481548110610947577f4e487b7100000000000000000000000000000000000000000000000000000000600052603260045260246000fd5b906000526020600020906004020160030160008282546109679190611b1d565b9250508190555060006006600085815260200190815260200160002060003373ffffffffffffffffffffffffffffffffffffffff1673ffffffffffffffffffffffffffffffffffffffff16815260200190815260200160002060006101000a81548160ff021916908315150217905550823373ffffffffffffffffffffffffffffffffffffffff167ff0dca620e2e81f7841d07bcc105e1704fb01475b278a9d4c236e1c62945edd5560405160405180910390a3505050565b60046020528060005260406000206000915054906101000a900460ff1681565b60006006600084815260200190815260200160002060008373ffffffffffffffffffffffffffffffffffffffff1673ffffffffffffffffffffffffffffffffffffffff16815260200190815260200160002060009054906101000a900460ff16905092915050565b60078181548110610ab857600080fd5b90600052602060002090600402016000915090508060000160009054906101000a900473ffffffffffffffffffffffffffffffffffffffff16908060010154908060020160009054906101000a900460ff16908060030154905084565b6000600780549050905090565b600460003373ffffffffffffffffffffffffffffffffffffffff1673ffffffffffffffffffffffffffffffffffffffff16815260200190815260200160002060009054906101000a900460ff16610bae576040517f08c379a0000000000000000000000000000000000000000000000000000000008152600401610ba5906119ee565b60405180910390fd5b806007805490508110610bf6576040517f08c379a0000000000000000000000000000000000000000000000000000000008152600401610bed9061190e565b60405180910390fd5b8160078181548110610c31577f4e487b7100000000000000000000000000000000000000000000000000000000600052603260045260246000fd5b906000526020600020906004020160020160009054906101000a900460ff1615610c90576040517f08c379a0000000000000000000000000000000000000000000000000000000008152600401610c87906119ce565b60405180910390fd5b826006600082815260200190815260200160002060003373ffffffffffffffffffffffffffffffffffffffff1673ffffffffffffffffffffffffffffffffffffffff16815260200190815260200160002060009054906101000a900460ff1615610d2f576040517f08c379a0000000000000000000000000000000000000000000000000000000008152600401610d269061192e565b60405180910390fd5b600160078581548110610d6b577f4e487b7100000000000000000000000000000000000000000000000000000000600052603260045260246000fd5b90600052602060002090600402016003016000828254610d8b9190611ac7565b9250508190555060016006600086815260200190815260200160002060003373ffffffffffffffffffffffffffffffffffffffff1673ffffffffffffffffffffffffffffffffffffffff16815260200190815260200160002060006101000a81548160ff021916908315150217905550833373ffffffffffffffffffffffffffffffffffffffff167f5cbe105e36805f7820e291f799d5794ff948af2a5f664e580382defb6339004160405160405180910390a350505050565b6000600160009054906101000a900473ffffffffffffffffffffffffffffffffffffffff16905090565b600060078281548110610eab577f4e487b7100000000000000000000000000000000000000000000000000000000600052603260045260246000fd5b906000526020600020906004020160020160009054906101000a900460ff169050919050565b60066020528160005260406000206020528060005260406000206000915091509054906101000a900460ff1681565b6000610f0c60006114ab565b905090565b60055481565b60606003805480602002602001604051908101604052809291908181526020018280548015610f9b57602002820191906000526020600020905b8160009054906101000a900473ffffffffffffffffffffffffffffffffffffffff1673ffffffffffffffffffffffffffffffffffffffff1681526020019060010190808311610f51575b5050505050905090565b600260009054906101000a900473ffffffffffffffffffffffffffffffffffffffff1681565b600160009054906101000a900473ffffffffffffffffffffffffffffffffffffffff1681565b600460003373ffffffffffffffffffffffffffffffffffffffff1673ffffffffffffffffffffffffffffffffffffffff16815260200190815260200160002060009054906101000a900460ff1661107d576040517f08c379a0000000000000000000000000000000000000000000000000000000008152600401611074906119ee565b60405180910390fd5b8060078054905081106110c5576040517f08c379a00000000000000000000000000000000000000000000000000000000081526004016110bc9061190e565b60405180910390fd5b8160078181548110611100577f4e487b7100000000000000000000000000000000000000000000000000000000600052603260045260246000fd5b906000526020600020906004020160020160009054906101000a900460ff161561115f576040517f08c379a0000000000000000000000000000000000000000000000000000000008152600401611156906119ce565b60405180910390fd5b6005546007848154811061119c577f4e487b7100000000000000000000000000000000000000000000000000000000600052603260045260246000fd5b90600052602060002090600402016003015410156111ef576040517f08c379a00000000000000000000000000000000000000000000000000000000081526004016111e69061198e565b60405180910390fd5b60078381548110611229577f4e487b7100000000000000000000000000000000000000000000000000000000600052603260045260246000fd5b90600052602060002090600402016001015447101561127d576040517f08c379a0000000000000000000000000000000000000000000000000000000008152600401611274906119ae565b60405180910390fd5b6000600784815481106112b9577f4e487b7100000000000000000000000000000000000000000000000000000000600052603260045260246000fd5b906000526020600020906004020160000160009054906101000a900473ffffffffffffffffffffffffffffffffffffffff1673ffffffffffffffffffffffffffffffffffffffff166007858154811061133b577f4e487b7100000000000000000000000000000000000000000000000000000000600052603260045260246000fd5b9060005260206000209060040201600101546040516113599061183c565b60006040518083038185875af1925050503d8060008114611396576040519150601f19603f3d011682016040523d82523d6000602084013e61139b565b606091505b50509050806113df576040517f08c379a00000000000000000000000000000000000000000000000000000000081526004016113d69061196e565b60405180910390fd5b60006114b9905050600160078581548110611423577f4e487b7100000000000000000000000000000000000000000000000000000000600052603260045260246000fd5b906000526020600020906004020160020160006101000a81548160ff021916908315150217905550833373ffffffffffffffffffffffffffffffffffffffff167f5445f318f4f5fcfb66592e68e0cc5822aa15664039bd5f0ffde24c5a8142b1ac60405160405180910390a350505050565b6001816000016000828254019250508190555050565b600081600001549050919050565b60008160000154905060008111611505576040517f08c379a00000000000000000000000000000000000000000000000000000000081526004016114fc906118ee565b60405180910390fd5b6001810382600001819055505050565b60008135905061152481611d65565b92915050565b60008135905061153981611d7c565b92915050565b60006020828403121561155157600080fd5b600061155f84828501611515565b91505092915050565b6000806040838503121561157b57600080fd5b600061158985828601611515565b925050602061159a8582860161152a565b9150509250929050565b6000602082840312156115b657600080fd5b60006115c48482850161152a565b91505092915050565b600080604083850312156115e057600080fd5b60006115ee8582860161152a565b92505060206115ff85828601611515565b9150509250929050565b60006116158383611621565b60208301905092915050565b61162a81611b51565b82525050565b61163981611b51565b82525050565b600061164a82611a82565b6116548185611a9a565b935061165f83611a72565b8060005b838110156116905781516116778882611609565b975061168283611a8d565b925050600181019050611663565b5085935050505092915050565b6116a681611b63565b82525050565b60006116b9601b83611ab6565b91506116c482611bc8565b602082019050919050565b60006116dc601183611ab6565b91506116e782611bf1565b602082019050919050565b60006116ff601483611ab6565b915061170a82611c1a565b602082019050919050565b6000611722601c83611ab6565b915061172d82611c43565b602082019050919050565b6000611745601283611ab6565b915061175082611c6c565b602082019050919050565b6000611768600083611aab565b915061177382611c95565b600082019050919050565b600061178b601183611ab6565b915061179682611c98565b602082019050919050565b60006117ae601083611ab6565b91506117b982611cc1565b602082019050919050565b60006117d1601383611ab6565b91506117dc82611cea565b602082019050919050565b60006117f4600983611ab6565b91506117ff82611d13565b602082019050919050565b6000611817601083611ab6565b915061182282611d3c565b602082019050919050565b61183681611b8f565b82525050565b60006118478261175b565b9150819050919050565b60006020820190506118666000830184611630565b92915050565b60006080820190506118816000830187611630565b61188e602083018661182d565b61189b604083018561169d565b6118a8606083018461182d565b95945050505050565b600060208201905081810360008301526118cb818461163f565b905092915050565b60006020820190506118e8600083018461169d565b92915050565b60006020820190508181036000830152611907816116ac565b9050919050565b60006020820190508181036000830152611927816116cf565b9050919050565b60006020820190508181036000830152611947816116f2565b9050919050565b6000602082019050818103600083015261196781611715565b9050919050565b6000602082019050818103600083015261198781611738565b9050919050565b600060208201905081810360008301526119a78161177e565b9050919050565b600060208201905081810360008301526119c7816117a1565b9050919050565b600060208201905081810360008301526119e7816117c4565b9050919050565b60006020820190508181036000830152611a07816117e7565b9050919050565b60006020820190508181036000830152611a278161180a565b9050919050565b6000602082019050611a43600083018461182d565b92915050565b6000604082019050611a5e600083018561182d565b611a6b602083018461182d565b9392505050565b6000819050602082019050919050565b600081519050919050565b6000602082019050919050565b600082825260208201905092915050565b600081905092915050565b600082825260208201905092915050565b6000611ad282611b8f565b9150611add83611b8f565b9250827fffffffffffffffffffffffffffffffffffffffffffffffffffffffffffffffff03821115611b1257611b11611b99565b5b828201905092915050565b6000611b2882611b8f565b9150611b3383611b8f565b925082821015611b4657611b45611b99565b5b828203905092915050565b6000611b5c82611b6f565b9050919050565b60008115159050919050565b600073ffffffffffffffffffffffffffffffffffffffff82169050919050565b6000819050919050565b7f4e487b7100000000000000000000000000000000000000000000000000000000600052601160045260246000fd5b7f436f756e7465723a2064656372656d656e74206f766572666c6f770000000000600082015250565b7f747820646f6573206e6f74206578697374000000000000000000000000000000600082015250565b7f747820616c726561647920636f6e6669726d6564000000000000000000000000600082015250565b7f696e7375666669636965742066756e6473207472616e73666572656400000000600082015250565b7f5472616e73616374696f6e206661696c65640000000000000000000000000000600082015250565b50565b7f43616e6e6f742045786563757465207478000000000000000000000000000000600082015250565b7f6e6f7420656e6f7567682066756e647300000000000000000000000000000000600082015250565b7f747820616c726561647920657865637574656400000000000000000000000000600082015250565b7f6e6f74206f776e65720000000000000000000000000000000000000000000000600082015250565b7f7478206e6f7420436f6e6669726d656400000000000000000000000000000000600082015250565b611d6e81611b51565b8114611d7957600080fd5b50565b611d8581611b8f565b8114611d9057600080fd5b5056fea2646970667358221220c549b61e05c3a02ac38e522311cf7d0051bcbc1b553ac9ab85e057c176574cda64736f6c63430008040033",
  "linkReferences": {},
  "deployedLinkReferences": {}
}